{
  "_format": "hh-sol-artifact-1",
  "contractName": "Compositor",
  "sourceName": "contracts/Compositor.sol",
  "abi": [
    {
      "inputs": [],
      "name": "InvalidTokenCount",
      "type": "error"
    },
    {
      "inputs": [],
      "name": "InvalidTokenOwnership",
      "type": "error"
    },
    {
      "inputs": [
        {
          "internalType": "uint256[][]",
          "name": "tokenSets",
          "type": "uint256[][]"
        }
      ],
      "name": "composite",
      "outputs": [],
      "stateMutability": "nonpayable",
      "type": "function"
    },
    {
      "inputs": [
        {
          "internalType": "uint256[][]",
          "name": "tokenSets",
          "type": "uint256[][]"
        }
      ],
      "name": "compositeAndRender",
      "outputs": [
        {
          "internalType": "string",
          "name": "tokenURI",
          "type": "string"
        }
      ],
      "stateMutability": "nonpayable",
      "type": "function"
    }
  ],
  "bytecode": "0x60a060405273036721e5a769cc48b3189efbb9cce4471e8a48b160805234801561002857600080fd5b50608051610988610052600039600081816101120152818161025c015261035901526109886000f3fe608060405234801561001057600080fd5b50600436106100365760003560e01c80630d704f521461003b5780631735ddcc14610050575b600080fd5b61004e61004936600461059a565b610079565b005b61006361005e36600461059a565b6100ef565b6040516100709190610633565b60405180910390f35b60005b818110156100ea576100e283838381811061009957610099610684565b90506020028101906100ab91906106b3565b8080602002602001604051908101604052809392919081815260200183836020028082843760009201919091525061020592505050565b60010161007c565b505050565b60606100fb8383610079565b73ffffffffffffffffffffffffffffffffffffffff7f00000000000000000000000000000000000000000000000000000000000000001663c87b56dd8484610144600182610751565b81811061015357610153610684565b905060200281019061016591906106b3565b600081811061017657610176610684565b905060200201356040518263ffffffff1660e01b815260040161019b91815260200190565b600060405180830381865afa1580156101b8573d6000803e3d6000fd5b505050506040513d6000823e601f3d9081017fffffffffffffffffffffffffffffffffffffffffffffffffffffffffffffffe01682016040526101fe9190810190610799565b9392505050565b61020e816102d7565b60008061021a83610461565b6040517f50f11805000000000000000000000000000000000000000000000000000000008152919350915073ffffffffffffffffffffffffffffffffffffffff7f000000000000000000000000000000000000000000000000000000000000000016906350f118059061029390859085906004016108a0565b600060405180830381600087803b1580156102ad57600080fd5b505af11580156102c1573d6000803e3d6000fd5b5050505060028251106100ea576100ea82610205565b805160028110806102f357506102ee600182610751565b811615155b806102fe5750604081115b15610335576040517fe778681d00000000000000000000000000000000000000000000000000000000815260040160405180910390fd5b60005b818110156100ea573373ffffffffffffffffffffffffffffffffffffffff167f000000000000000000000000000000000000000000000000000000000000000073ffffffffffffffffffffffffffffffffffffffff16636352211e8584815181106103a5576103a5610684565b60200260200101516040518263ffffffff1660e01b81526004016103cb91815260200190565b602060405180830381865afa1580156103e8573d6000803e3d6000fd5b505050506040513d601f19601f8201168201806040525081019061040c91906108ce565b73ffffffffffffffffffffffffffffffffffffffff1614610459576040517f23fdce9000000000000000000000000000000000000000000000000000000000815260040160405180910390fd5b600101610338565b6060806000600284516104749190610904565b905060008167ffffffffffffffff8111156104915761049161076a565b6040519080825280602002602001820160405280156104ba578160200160208202803683370190505b50905060008267ffffffffffffffff8111156104d8576104d861076a565b604051908082528060200260200182016040528015610501578160200160208202803683370190505b50905060005b8381101561058e5786818151811061052157610521610684565b602002602001015183828151811061053b5761053b610684565b602090810291909101015286610551828661093f565b8151811061056157610561610684565b602002602001015182828151811061057b5761057b610684565b6020908102919091010152600101610507565b50909590945092505050565b600080602083850312156105ad57600080fd5b823567ffffffffffffffff808211156105c557600080fd5b818501915085601f8301126105d957600080fd5b8135818111156105e857600080fd5b8660208260051b85010111156105fd57600080fd5b60209290920196919550909350505050565b60005b8381101561062a578181015183820152602001610612565b50506000910152565b602081526000825180602084015261065281604085016020870161060f565b601f017fffffffffffffffffffffffffffffffffffffffffffffffffffffffffffffffe0169190910160400192915050565b7f4e487b7100000000000000000000000000000000000000000000000000000000600052603260045260246000fd5b60008083357fffffffffffffffffffffffffffffffffffffffffffffffffffffffffffffffe18436030181126106e857600080fd5b83018035915067ffffffffffffffff82111561070357600080fd5b6020019150600581901b360382131561071b57600080fd5b9250929050565b7f4e487b7100000000000000000000000000000000000000000000000000000000600052601160045260246000fd5b8181038181111561076457610764610722565b92915050565b7f4e487b7100000000000000000000000000000000000000000000000000000000600052604160045260246000fd5b6000602082840312156107ab57600080fd5b815167ffffffffffffffff808211156107c357600080fd5b818401915084601f8301126107d757600080fd5b8151818111156107e9576107e961076a565b604051601f82017fffffffffffffffffffffffffffffffffffffffffffffffffffffffffffffffe0908116603f0116810190838211818310171561082f5761082f61076a565b8160405282815287602084870101111561084857600080fd5b61085983602083016020880161060f565b979650505050505050565b60008151808452602080850194506020840160005b8381101561089557815187529582019590820190600101610879565b509495945050505050565b6040815260006108b36040830185610864565b82810360208401526108c58185610864565b95945050505050565b6000602082840312156108e057600080fd5b815173ffffffffffffffffffffffffffffffffffffffff811681146101fe57600080fd5b60008261093a577f4e487b7100000000000000000000000000000000000000000000000000000000600052601260045260246000fd5b500490565b808201808211156107645761076461072256fea2646970667358221220b628cf315ff65884cc37b1230e7793408223d0541dd1be6e88a2724a5c0f965564736f6c63430008180033",
  "linkReferences": {},
  "deployedLinkReferences": {}
}